:060000000C942F000C948B
:1000060000000C9400000C9400000C9400000C946A
:1000160000000C9400000C9400000C9400000C945A
:1000260000000C9400000C9400000C9400000C944A
:1000360000000C9400000C9400000C9400000C943A
:1000460000000C9400000C9400000C9400000000CA
:100056000000000000000000F894EE27ECBBF1E081
:10006600FBBFEBBFE5BF8DE0A2E0BB27ED938A9512
:10007600E9F780E098E0A0E6ED930197E9F7EFE570
:10008600EDBFE8E0EEBFC0E6D2E00C944A002A9746
:100096008AE0A0E0B0E0E4E5F0E00E94F40040E091
:1000A60050E0EFE0E1BBE4BBE1E0E2BBA885B98547
:1000B600EAE0F0E00E94D300E883F983A885B985D9
:1000C600EAE0F0E00E94D800EA83FB83DA01EAE086
:1000D600F0E00E94D300EC83FD83DA01EAE0F0E071
:1000E6000E94D800EE83FF83E2B3E8BB20E030E055
:1000F6002A3FE0E03E07ECF4E8B3E2BB00E010E0A4
:100106000430E0E01E0794F4F801DE01EE0FFF1F55
:10011600AE0FBF1FEC91E5BBA1E0B0E00E94B200BC
:10012600E2B3EE0FE2BB0F5F1F4FEACF2F5F3F4FE9
:10013600DFCF4F5F5F4F4C33E0E05E0774F040E087
:1001460050E0E885F9853196E887F987A885B9856D
:10015600DC971CF0E0E0E887E987A6CFFFCF109692
:1001660039F080ED97E00197F1F7A8951197C9F757
:100176000895F195E195F04008950024112490E149
:10018600AA0FBB1F001C111C0E1A1F0A18F40E0E14
:100196001F1E01C0A1609A9599F7FD01D00108952F
:1001A60012D0EBDF0EF4E5DF0895E894B7FF04C044
:1001B600A095B09511966894F7FDDBDFDEDFFD01B3
:1001C6000EF4D7DF0895E894F7FF02C0D2DF6894F3
:1001D600B7FF06C0A095B095119600F8039400FAF3
:1001E6000895AC0FBD1F05900D928A95E1F708950D
:00000001FF
